:0300000002019A60
:0C019A00787FE4F6D8FD7581660201E173
:10022600022400001026000000000000000000006C
:100236000000000000000166000164040A360001A7
:1002460002040810204080000B40000103060C1831
:100256003060C080000C4B000103070E1C3870E0B4
:10026600C080000D57000103070F1E3C78F0E0C068
:1002760080000165000123C8C103C104C101C18218
:080286000121000122FFC180EB
:10032C00E4F508D2AF12039A300121C2017523C83B
:10033C00E4F565F566756404C204C203F508742619
:10034C002508F8E4F60508E508B410F21203C68097
:01035C00D7C9
:10039A00538E7F5389F0438901758A66758CFCC236
:0603AA008DD28CD2A922C5
:03000B0002028F5F
:10028F00C0E0C0F0C083C082C0D075D000C000C035
:10029F0001C002C003C004C005C006C007758A664E
:1002AF00758CFC1203831203B00525E5257002053A
:1002BF0024B5230BE4B52407F524F5251202E9D064
:1002CF0007D006D005D004D003D002D001D000D083
:0A02DF00D0D082D083D0F0D0E032FE
:10000E0074252565F8E612035D00C90100CE0200D5
:10001E00A40300D30400A90600840700D80800AE8C
:10002E000C00890E00690F00DD1000B318008E1C45
:10003E00006E1E00E22000B83000933800733C00C2
:10004E00E74000BD6000987000787100EC8000C23F
:10005E00C0009DE0007DF0000000F2756604801285
:10006E00756605800D7566068008756607800375D2
:10007E00660875640422756603801775660480121F
:10008E00756605800D7566068008756607800375B2
:10009E00660875640322756602801C7566038017F8
:1000AE007566048012756605800D75660680087586
:1000BE0066078003756608756402227566018021E5
:1000CE00756602801C75660380177566048012754E
:1000DE006605800D75660680087566078003756671
:0500EE00087564012209
:1002E900300305C20312000EE56414601514600E94
:1002F90014600714701A7457800A744B800674408E
:10030900800274362566F8E6FF74262565F8A60787
:1003190074262565F8E67002B204300403056622E6
:0303290015662234
:1000F30074F62523F523E565700B74572566F8E63A
:10010300F52605652230043AE56414602A14601C60
:1001130014600E14707174252565F8E6FF7456801B
:100123005974252565F8E6FF744A804E74252565C4
:10013300F8E6FF743F804374252565F8E6FF7435C0
:100143008038E56414602A14601C14600E14703740
:1001530074252565F8E6FF7458801F74252565F816
:10016300E6FF744C801474252565F8E6FF7441801E
:100173000974252565F8E6FF74372566F8E65FFF01
:1001830074262565F8A607056574252565F8E670C8
:0701930003D20122D2032276
:100383008521A074262521F8E6F4F5800521E521D1
:06039300B41103E4F521A2
:010399002241
:1003B000E52225E0FFA295E4334FF522540F7003A8
:0503C000C20222D2027E
:0103C5002215
:1003C600A200300201B3500A3000031200F3A20269
:0203D600920093
:0103D8002202
:1001A60002032CE493A3F8E493A34003F68001F240
:1001B60008DFF48029E493A3F85407240CC8C3335A
:1001C600C4540F4420C8834004F456800146F6DF29
:1001D600E4800B0102040810204080900226E47E91
:1001E600019360BCA3FF543F30E509541FFEE4931E
:1001F600A360010ECF54C025E060A840B8E493A3E5
:10020600FAE493A3F8E493A3C8C582C8CAC583CA0F
:10021600F0A3C8C582C8CAC583CADFE9DEE780BEC7
:01028E00006F
:10035D00D083D082F8E4937012740193700DA3A32F
:10036D0093F8740193F5828883E473740293686043
:06037D00EFA3A3A380DF43
:00000001FF
